{
  "_format": "hh-sol-artifact-1",
  "contractName": "MockUSDC",
  "sourceName": "contracts/MockUSDC.sol",
  "abi": [
    {
      "inputs": [],
      "stateMutability": "nonpayable",
      "type": "constructor"
    },
    {
      "inputs": [],
      "name": "ECDSAInvalidSignature",
      "type": "error"
    },
    {
      "inputs": [
        {
          "internalType": "uint256",
          "name": "length",
          "type": "uint256"
        }
      ],
      "name": "ECDSAInvalidSignatureLength",
      "type": "error"
    },
    {
      "inputs": [
        {
          "internalType": "bytes32",
          "name": "s",
          "type": "bytes32"
        }
      ],
      "name": "ECDSAInvalidSignatureS",
      "type": "error"
    },
    {
      "inputs": [
        {
          "internalType": "address",
          "name": "spender",
          "type": "address"
        },
        {
          "internalType": "uint256",
          "name": "allowance",
          "type": "uint256"
        },
        {
          "internalType": "uint256",
          "name": "needed",
          "type": "uint256"
        }
      ],
      "name": "ERC20InsufficientAllowance",
      "type": "error"
    },
    {
      "inputs": [
        {
          "internalType": "address",
          "name": "sender",
          "type": "address"
        },
        {
          "internalType": "uint256",
          "name": "balance",
          "type": "uint256"
        },
        {
          "internalType": "uint256",
          "name": "needed",
          "type": "uint256"
        }
      ],
      "name": "ERC20InsufficientBalance",
      "type": "error"
    },
    {
      "inputs": [
        {
          "internalType": "address",
          "name": "approver",
          "type": "address"
        }
      ],
      "name": "ERC20InvalidApprover",
      "type": "error"
    },
    {
      "inputs": [
        {
          "internalType": "address",
          "name": "receiver",
          "type": "address"
        }
      ],
      "name": "ERC20InvalidReceiver",
      "type": "error"
    },
    {
      "inputs": [
        {
          "internalType": "address",
          "name": "sender",
          "type": "address"
        }
      ],
      "name": "ERC20InvalidSender",
      "type": "error"
    },
    {
      "inputs": [
        {
          "internalType": "address",
          "name": "spender",
          "type": "address"
        }
      ],
      "name": "ERC20InvalidSpender",
      "type": "error"
    },
    {
      "inputs": [
        {
          "internalType": "uint256",
          "name": "deadline",
          "type": "uint256"
        }
      ],
      "name": "ERC2612ExpiredSignature",
      "type": "error"
    },
    {
      "inputs": [
        {
          "internalType": "address",
          "name": "signer",
          "type": "address"
        },
        {
          "internalType": "address",
          "name": "owner",
          "type": "address"
        }
      ],
      "name": "ERC2612InvalidSigner",
      "type": "error"
    },
    {
      "inputs": [
        {
          "internalType": "address",
          "name": "account",
          "type": "address"
        },
        {
          "internalType": "uint256",
          "name": "currentNonce",
          "type": "uint256"
        }
      ],
      "name": "InvalidAccountNonce",
      "type": "error"
    },
    {
      "inputs": [],
      "name": "InvalidShortString",
      "type": "error"
    },
    {
      "inputs": [
        {
          "internalType": "address",
          "name": "owner",
          "type": "address"
        }
      ],
      "name": "OwnableInvalidOwner",
      "type": "error"
    },
    {
      "inputs": [
        {
          "internalType": "address",
          "name": "account",
          "type": "address"
        }
      ],
      "name": "OwnableUnauthorizedAccount",
      "type": "error"
    },
    {
      "inputs": [
        {
          "internalType": "string",
          "name": "str",
          "type": "string"
        }
      ],
      "name": "StringTooLong",
      "type": "error"
    },
    {
      "anonymous": false,
      "inputs": [
        {
          "indexed": true,
          "internalType": "address",
          "name": "owner",
          "type": "address"
        },
        {
          "indexed": true,
          "internalType": "address",
          "name": "spender",
          "type": "address"
        },
        {
          "indexed": false,
          "internalType": "uint256",
          "name": "value",
          "type": "uint256"
        }
      ],
      "name": "Approval",
      "type": "event"
    },
    {
      "anonymous": false,
      "inputs": [],
      "name": "EIP712DomainChanged",
      "type": "event"
    },
    {
      "anonymous": false,
      "inputs": [
        {
          "indexed": true,
          "internalType": "address",
          "name": "previousOwner",
          "type": "address"
        },
        {
          "indexed": true,
          "internalType": "address",
          "name": "newOwner",
          "type": "address"
        }
      ],
      "name": "OwnershipTransferred",
      "type": "event"
    },
    {
      "anonymous": false,
      "inputs": [
        {
          "indexed": true,
          "internalType": "address",
          "name": "from",
          "type": "address"
        },
        {
          "indexed": true,
          "internalType": "address",
          "name": "to",
          "type": "address"
        },
        {
          "indexed": false,
          "internalType": "uint256",
          "name": "value",
          "type": "uint256"
        }
      ],
      "name": "Transfer",
      "type": "event"
    },
    {
      "inputs": [],
      "name": "DOMAIN_SEPARATOR",
      "outputs": [
        {
          "internalType": "bytes32",
          "name": "",
          "type": "bytes32"
        }
      ],
      "stateMutability": "view",
      "type": "function"
    },
    {
      "inputs": [
        {
          "internalType": "address",
          "name": "owner",
          "type": "address"
        },
        {
          "internalType": "address",
          "name": "spender",
          "type": "address"
        }
      ],
      "name": "allowance",
      "outputs": [
        {
          "internalType": "uint256",
          "name": "",
          "type": "uint256"
        }
      ],
      "stateMutability": "view",
      "type": "function"
    },
    {
      "inputs": [
        {
          "internalType": "address",
          "name": "spender",
          "type": "address"
        },
        {
          "internalType": "uint256",
          "name": "value",
          "type": "uint256"
        }
      ],
      "name": "approve",
      "outputs": [
        {
          "internalType": "bool",
          "name": "",
          "type": "bool"
        }
      ],
      "stateMutability": "nonpayable",
      "type": "function"
    },
    {
      "inputs": [
        {
          "internalType": "address",
          "name": "account",
          "type": "address"
        }
      ],
      "name": "balanceOf",
      "outputs": [
        {
          "internalType": "uint256",
          "name": "",
          "type": "uint256"
        }
      ],
      "stateMutability": "view",
      "type": "function"
    },
    {
      "inputs": [
        {
          "internalType": "uint256",
          "name": "amount",
          "type": "uint256"
        }
      ],
      "name": "burn",
      "outputs": [],
      "stateMutability": "nonpayable",
      "type": "function"
    },
    {
      "inputs": [],
      "name": "decimals",
      "outputs": [
        {
          "internalType": "uint8",
          "name": "",
          "type": "uint8"
        }
      ],
      "stateMutability": "pure",
      "type": "function"
    },
    {
      "inputs": [],
      "name": "eip712Domain",
      "outputs": [
        {
          "internalType": "bytes1",
          "name": "fields",
          "type": "bytes1"
        },
        {
          "internalType": "string",
          "name": "name",
          "type": "string"
        },
        {
          "internalType": "string",
          "name": "version",
          "type": "string"
        },
        {
          "internalType": "uint256",
          "name": "chainId",
          "type": "uint256"
        },
        {
          "internalType": "address",
          "name": "verifyingContract",
          "type": "address"
        },
        {
          "internalType": "bytes32",
          "name": "salt",
          "type": "bytes32"
        },
        {
          "internalType": "uint256[]",
          "name": "extensions",
          "type": "uint256[]"
        }
      ],
      "stateMutability": "view",
      "type": "function"
    },
    {
      "inputs": [
        {
          "internalType": "address",
          "name": "to",
          "type": "address"
        },
        {
          "internalType": "uint256",
          "name": "amount",
          "type": "uint256"
        }
      ],
      "name": "mint",
      "outputs": [],
      "stateMutability": "nonpayable",
      "type": "function"
    },
    {
      "inputs": [],
      "name": "name",
      "outputs": [
        {
          "internalType": "string",
          "name": "",
          "type": "string"
        }
      ],
      "stateMutability": "view",
      "type": "function"
    },
    {
      "inputs": [
        {
          "internalType": "address",
          "name": "owner",
          "type": "address"
        }
      ],
      "name": "nonces",
      "outputs": [
        {
          "internalType": "uint256",
          "name": "",
          "type": "uint256"
        }
      ],
      "stateMutability": "view",
      "type": "function"
    },
    {
      "inputs": [],
      "name": "owner",
      "outputs": [
        {
          "internalType": "address",
          "name": "",
          "type": "address"
        }
      ],
      "stateMutability": "view",
      "type": "function"
    },
    {
      "inputs": [
        {
          "internalType": "address",
          "name": "owner",
          "type": "address"
        },
        {
          "internalType": "address",
          "name": "spender",
          "type": "address"
        },
        {
          "internalType": "uint256",
          "name": "value",
          "type": "uint256"
        },
        {
          "internalType": "uint256",
          "name": "deadline",
          "type": "uint256"
        },
        {
          "internalType": "uint8",
          "name": "v",
          "type": "uint8"
        },
        {
          "internalType": "bytes32",
          "name": "r",
          "type": "bytes32"
        },
        {
          "internalType": "bytes32",
          "name": "s",
          "type": "bytes32"
        }
      ],
      "name": "permit",
      "outputs": [],
      "stateMutability": "nonpayable",
      "type": "function"
    },
    {
      "inputs": [],
      "name": "renounceOwnership",
      "outputs": [],
      "stateMutability": "nonpayable",
      "type": "function"
    },
    {
      "inputs": [],
      "name": "symbol",
      "outputs": [
        {
          "internalType": "string",
          "name": "",
          "type": "string"
        }
      ],
      "stateMutability": "view",
      "type": "function"
    },
    {
      "inputs": [],
      "name": "totalSupply",
      "outputs": [
        {
          "internalType": "uint256",
          "name": "",
          "type": "uint256"
        }
      ],
      "stateMutability": "view",
      "type": "function"
    },
    {
      "inputs": [
        {
          "internalType": "address",
          "name": "to",
          "type": "address"
        },
        {
          "internalType": "uint256",
          "name": "value",
          "type": "uint256"
        }
      ],
      "name": "transfer",
      "outputs": [
        {
          "internalType": "bool",
          "name": "",
          "type": "bool"
        }
      ],
      "stateMutability": "nonpayable",
      "type": "function"
    },
    {
      "inputs": [
        {
          "internalType": "address",
          "name": "from",
          "type": "address"
        },
        {
          "internalType": "address",
          "name": "to",
          "type": "address"
        },
        {
          "internalType": "uint256",
          "name": "value",
          "type": "uint256"
        }
      ],
      "name": "transferFrom",
      "outputs": [
        {
          "internalType": "bool",
          "name": "",
          "type": "bool"
        }
      ],
      "stateMutability": "nonpayable",
      "type": "function"
    },
    {
      "inputs": [
        {
          "internalType": "address",
          "name": "newOwner",
          "type": "address"
        }
      ],
      "name": "transferOwnership",
      "outputs": [],
      "stateMutability": "nonpayable",
      "type": "function"
    }
  ],
  "bytecode": "0x61016060405234801561001157600080fd5b50336040518060400160405280600781526020017f7374675553444300000000000000000000000000000000000000000000000000815250806040518060400160405280600181526020017f31000000000000000000000000000000000000000000000000000000000000008152506040518060400160405280601c81526020017f4d6f636b204272696467656420555344432028537461726761746529000000008152506040518060400160405280600781526020017f737467555344430000000000000000000000000000000000000000000000000081525081600390816100fb9190610673565b50806004908161010b9190610673565b50505061012260058361024060201b90919060201c565b610120818152505061013e60068261024060201b90919060201c565b6101408181525050818051906020012060e08181525050808051906020012061010081815250504660a0818152505061017b61029060201b60201c565b608081815250503073ffffffffffffffffffffffffffffffffffffffff1660c08173ffffffffffffffffffffffffffffffffffffffff1681525050505050600073ffffffffffffffffffffffffffffffffffffffff168173ffffffffffffffffffffffffffffffffffffffff160361022b5760006040517f1e4fbdf70000000000000000000000000000000000000000000000000000000081526004016102229190610786565b60405180910390fd5b61023a816102eb60201b60201c565b5061095a565b60006020835110156102625761025b836103b160201b60201c565b905061028a565b826102728361041960201b60201c565b60000190816102819190610673565b5060ff60001b90505b92915050565b60007f8b73c3c69bb8fe3d512ecc4cf759cc79239f7b179b0ffacaa9a75d522b39400f60e0516101005146306040516020016102d09594939291906107c9565b60405160208183030381529060405280519060200120905090565b6000600860009054906101000a900473ffffffffffffffffffffffffffffffffffffffff16905081600860006101000a81548173ffffffffffffffffffffffffffffffffffffffff021916908373ffffffffffffffffffffffffffffffffffffffff1602179055508173ffffffffffffffffffffffffffffffffffffffff168173ffffffffffffffffffffffffffffffffffffffff167f8be0079c531659141344cd1fd0a4f28419497f9722a3daafe3b4186f6b6457e060405160405180910390a35050565b600080829050601f815111156103fe57826040517f305a27a90000000000000000000000000000000000000000000000000000000081526004016103f591906108a1565b60405180910390fd5b80518161040a906108f3565b60001c1760001b915050919050565b6000819050919050565b600081519050919050565b7f4e487b7100000000000000000000000000000000000000000000000000000000600052604160045260246000fd5b7f4e487b7100000000000000000000000000000000000000000000000000000000600052602260045260246000fd5b600060028204905060018216806104a457607f821691505b6020821081036104b7576104b661045d565b5b50919050565b60008190508160005260206000209050919050565b60006020601f8301049050919050565b600082821b905092915050565b60006008830261051f7fffffffffffffffffffffffffffffffffffffffffffffffffffffffffffffffff826104e2565b61052986836104e2565b95508019841693508086168417925050509392505050565b6000819050919050565b6000819050919050565b600061057061056b61056684610541565b61054b565b610541565b9050919050565b6000819050919050565b61058a83610555565b61059e61059682610577565b8484546104ef565b825550505050565b600090565b6105b36105a6565b6105be818484610581565b505050565b5b818110156105e2576105d76000826105ab565b6001810190506105c4565b5050565b601f821115610627576105f8816104bd565b610601846104d2565b81016020851015610610578190505b61062461061c856104d2565b8301826105c3565b50505b505050565b600082821c905092915050565b600061064a6000198460080261062c565b1980831691505092915050565b60006106638383610639565b9150826002028217905092915050565b61067c82610423565b67ffffffffffffffff8111156106955761069461042e565b5b61069f825461048c565b6106aa8282856105e6565b600060209050601f8311600181146106dd57600084156106cb578287015190505b6106d58582610657565b86555061073d565b601f1984166106eb866104bd565b60005b82811015610713578489015182556001820191506020850194506020810190506106ee565b86831015610730578489015161072c601f891682610639565b8355505b6001600288020188555050505b505050505050565b600073ffffffffffffffffffffffffffffffffffffffff82169050919050565b600061077082610745565b9050919050565b61078081610765565b82525050565b600060208201905061079b6000830184610777565b92915050565b6000819050919050565b6107b4816107a1565b82525050565b6107c381610541565b82525050565b600060a0820190506107de60008301886107ab565b6107eb60208301876107ab565b6107f860408301866107ab565b61080560608301856107ba565b6108126080830184610777565b9695505050505050565b600082825260208201905092915050565b60005b8381101561084b578082015181840152602081019050610830565b60008484015250505050565b6000601f19601f8301169050919050565b600061087382610423565b61087d818561081c565b935061088d81856020860161082d565b61089681610857565b840191505092915050565b600060208201905081810360008301526108bb8184610868565b905092915050565b600081519050919050565b6000819050602082019050919050565b60006108ea82516107a1565b80915050919050565b60006108fe826108c3565b82610908846108ce565b9050610913816108de565b925060208210156109535761094e7fffffffffffffffffffffffffffffffffffffffffffffffffffffffffffffffff836020036008026104e2565b831692505b5050919050565b60805160a05160c05160e0516101005161012051610140516120476109b46000396000610e4101526000610e06015260006113560152600061133501526000610ab001526000610b0601526000610b2f01526120476000f3fe608060405234801561001057600080fd5b50600436106101165760003560e01c8063715018a6116100a257806395d89b411161007157806395d89b41146102d7578063a9059cbb146102f5578063d505accf14610325578063dd62ed3e14610341578063f2fde38b1461037157610116565b8063715018a61461025b5780637ecebe001461026557806384b0196e146102955780638da5cb5b146102b957610116565b8063313ce567116100e9578063313ce567146101b75780633644e515146101d557806340c10f19146101f357806342966c681461020f57806370a082311461022b57610116565b806306fdde031461011b578063095ea7b31461013957806318160ddd1461016957806323b872dd14610187575b600080fd5b61012361038d565b6040516101309190611843565b60405180910390f35b610153600480360381019061014e91906118fe565b61041f565b6040516101609190611959565b60405180910390f35b610171610442565b60405161017e9190611983565b60405180910390f35b6101a1600480360381019061019c919061199e565b61044c565b6040516101ae9190611959565b60405180910390f35b6101bf61047b565b6040516101cc9190611a0d565b60405180910390f35b6101dd610484565b6040516101ea9190611a41565b60405180910390f35b61020d600480360381019061020891906118fe565b610493565b005b61022960048036038101906102249190611a5c565b6104a9565b005b61024560048036038101906102409190611a89565b6104bd565b6040516102529190611983565b60405180910390f35b610263610505565b005b61027f600480360381019061027a9190611a89565b610519565b60405161028c9190611983565b60405180910390f35b61029d61052b565b6040516102b09796959493929190611bbe565b60405180910390f35b6102c16105d5565b6040516102ce9190611c42565b60405180910390f35b6102df6105ff565b6040516102ec9190611843565b60405180910390f35b61030f600480360381019061030a91906118fe565b610691565b60405161031c9190611959565b60405180910390f35b61033f600480360381019061033a9190611cb5565b6106b4565b005b61035b60048036038101906103569190611d57565b6107fc565b6040516103689190611983565b60405180910390f35b61038b60048036038101906103869190611a89565b610883565b005b60606003805461039c90611dc6565b80601f01602080910402602001604051908101604052809291908181526020018280546103c890611dc6565b80156104155780601f106103ea57610100808354040283529160200191610415565b820191906000526020600020905b8154815290600101906020018083116103f857829003601f168201915b5050505050905090565b60008061042a610909565b9050610437818585610911565b600191505092915050565b6000600254905090565b600080610457610909565b9050610464858285610923565b61046f8585856109b8565b60019150509392505050565b60006006905090565b600061048e610aac565b905090565b61049b610b63565b6104a58282610bea565b5050565b6104ba6104b4610909565b82610c6c565b50565b60008060008373ffffffffffffffffffffffffffffffffffffffff1673ffffffffffffffffffffffffffffffffffffffff168152602001908152602001600020549050919050565b61050d610b63565b6105176000610cee565b565b600061052482610db4565b9050919050565b60006060806000806000606061053f610dfd565b610547610e38565b46306000801b600067ffffffffffffffff81111561056857610567611df7565b5b6040519080825280602002602001820160405280156105965781602001602082028036833780820191505090505b507f0f00000000000000000000000000000000000000000000000000000000000000959493929190965096509650965096509650965090919293949596565b6000600860009054906101000a900473ffffffffffffffffffffffffffffffffffffffff16905090565b60606004805461060e90611dc6565b80601f016020809104026020016040519081016040528092919081815260200182805461063a90611dc6565b80156106875780601f1061065c57610100808354040283529160200191610687565b820191906000526020600020905b81548152906001019060200180831161066a57829003601f168201915b5050505050905090565b60008061069c610909565b90506106a98185856109b8565b600191505092915050565b834211156106f957836040517f627913020000000000000000000000000000000000000000000000000000000081526004016106f09190611983565b60405180910390fd5b60007f6e71edae12b1b97f4d1f60370fef10105fa2faae0126114a169c64845d6126c98888886107288c610e73565b8960405160200161073e96959493929190611e26565b604051602081830303815290604052805190602001209050600061076182610eca565b9050600061077182878787610ee4565b90508973ffffffffffffffffffffffffffffffffffffffff168173ffffffffffffffffffffffffffffffffffffffff16146107e557808a6040517f4b800e460000000000000000000000000000000000000000000000000000000081526004016107dc929190611e87565b60405180910390fd5b6107f08a8a8a610911565b50505050505050505050565b6000600160008473ffffffffffffffffffffffffffffffffffffffff1673ffffffffffffffffffffffffffffffffffffffff16815260200190815260200160002060008373ffffffffffffffffffffffffffffffffffffffff1673ffffffffffffffffffffffffffffffffffffffff16815260200190815260200160002054905092915050565b61088b610b63565b600073ffffffffffffffffffffffffffffffffffffffff168173ffffffffffffffffffffffffffffffffffffffff16036108fd5760006040517f1e4fbdf70000000000000000000000000000000000000000000000000000000081526004016108f49190611c42565b60405180910390fd5b61090681610cee565b50565b600033905090565b61091e8383836001610f14565b505050565b600061092f84846107fc565b90507fffffffffffffffffffffffffffffffffffffffffffffffffffffffffffffffff8110156109b257818110156109a2578281836040517ffb8f41b200000000000000000000000000000000000000000000000000000000815260040161099993929190611eb0565b60405180910390fd5b6109b184848484036000610f14565b5b50505050565b600073ffffffffffffffffffffffffffffffffffffffff168373ffffffffffffffffffffffffffffffffffffffff1603610a2a5760006040517f96c6fd1e000000000000000000000000000000000000000000000000000000008152600401610a219190611c42565b60405180910390fd5b600073ffffffffffffffffffffffffffffffffffffffff168273ffffffffffffffffffffffffffffffffffffffff1603610a9c5760006040517fec442f05000000000000000000000000000000000000000000000000000000008152600401610a939190611c42565b60405180910390fd5b610aa78383836110eb565b505050565b60007f000000000000000000000000000000000000000000000000000000000000000073ffffffffffffffffffffffffffffffffffffffff163073ffffffffffffffffffffffffffffffffffffffff16148015610b2857507f000000000000000000000000000000000000000000000000000000000000000046145b15610b55577f00000000000000000000000000000000000000000000000000000000000000009050610b60565b610b5d611310565b90505b90565b610b6b610909565b73ffffffffffffffffffffffffffffffffffffffff16610b896105d5565b73ffffffffffffffffffffffffffffffffffffffff1614610be857610bac610909565b6040517f118cdaa7000000000000000000000000000000000000000000000000000000008152600401610bdf9190611c42565b60405180910390fd5b565b600073ffffffffffffffffffffffffffffffffffffffff168273ffffffffffffffffffffffffffffffffffffffff1603610c5c5760006040517fec442f05000000000000000000000000000000000000000000000000000000008152600401610c539190611c42565b60405180910390fd5b610c68600083836110eb565b5050565b600073ffffffffffffffffffffffffffffffffffffffff168273ffffffffffffffffffffffffffffffffffffffff1603610cde5760006040517f96c6fd1e000000000000000000000000000000000000000000000000000000008152600401610cd59190611c42565b60405180910390fd5b610cea826000836110eb565b5050565b6000600860009054906101000a900473ffffffffffffffffffffffffffffffffffffffff16905081600860006101000a81548173ffffffffffffffffffffffffffffffffffffffff021916908373ffffffffffffffffffffffffffffffffffffffff1602179055508173ffffffffffffffffffffffffffffffffffffffff168173ffffffffffffffffffffffffffffffffffffffff167f8be0079c531659141344cd1fd0a4f28419497f9722a3daafe3b4186f6b6457e060405160405180910390a35050565b6000600760008373ffffffffffffffffffffffffffffffffffffffff1673ffffffffffffffffffffffffffffffffffffffff168152602001908152602001600020549050919050565b6060610e3360057f00000000000000000000000000000000000000000000000000000000000000006113a690919063ffffffff16565b905090565b6060610e6e60067f00000000000000000000000000000000000000000000000000000000000000006113a690919063ffffffff16565b905090565b6000600760008373ffffffffffffffffffffffffffffffffffffffff1673ffffffffffffffffffffffffffffffffffffffff1681526020019081526020016000206000815480929190600101919050559050919050565b6000610edd610ed7610aac565b83611456565b9050919050565b600080600080610ef688888888611497565b925092509250610f06828261158b565b829350505050949350505050565b600073ffffffffffffffffffffffffffffffffffffffff168473ffffffffffffffffffffffffffffffffffffffff1603610f865760006040517fe602df05000000000000000000000000000000000000000000000000000000008152600401610f7d9190611c42565b60405180910390fd5b600073ffffffffffffffffffffffffffffffffffffffff168373ffffffffffffffffffffffffffffffffffffffff1603610ff85760006040517f94280d62000000000000000000000000000000000000000000000000000000008152600401610fef9190611c42565b60405180910390fd5b81600160008673ffffffffffffffffffffffffffffffffffffffff1673ffffffffffffffffffffffffffffffffffffffff16815260200190815260200160002060008573ffffffffffffffffffffffffffffffffffffffff1673ffffffffffffffffffffffffffffffffffffffff1681526020019081526020016000208190555080156110e5578273ffffffffffffffffffffffffffffffffffffffff168473ffffffffffffffffffffffffffffffffffffffff167f8c5be1e5ebec7d5bd14f71427d1e84f3dd0314c0f7b2291e5b200ac8c7c3b925846040516110dc9190611983565b60405180910390a35b50505050565b600073ffffffffffffffffffffffffffffffffffffffff168373ffffffffffffffffffffffffffffffffffffffff160361113d5780600260008282546111319190611f16565b92505081905550611210565b60008060008573ffffffffffffffffffffffffffffffffffffffff1673ffffffffffffffffffffffffffffffffffffffff168152602001908152602001600020549050818110156111c9578381836040517fe450d38c0000000000000000000000000000000000000000000000000000000081526004016111c093929190611eb0565b60405180910390fd5b8181036000808673ffffffffffffffffffffffffffffffffffffffff1673ffffffffffffffffffffffffffffffffffffffff16815260200190815260200160002081905550505b600073ffffffffffffffffffffffffffffffffffffffff168273ffffffffffffffffffffffffffffffffffffffff160361125957806002600082825403925050819055506112a6565b806000808473ffffffffffffffffffffffffffffffffffffffff1673ffffffffffffffffffffffffffffffffffffffff168152602001908152602001600020600082825401925050819055505b8173ffffffffffffffffffffffffffffffffffffffff168373ffffffffffffffffffffffffffffffffffffffff167fddf252ad1be2c89b69c2b068fc378daa952ba7f163c4a11628f55a4df523b3ef836040516113039190611983565b60405180910390a3505050565b60007f8b73c3c69bb8fe3d512ecc4cf759cc79239f7b179b0ffacaa9a75d522b39400f7f00000000000000000000000000000000000000000000000000000000000000007f0000000000000000000000000000000000000000000000000000000000000000463060405160200161138b959493929190611f4a565b60405160208183030381529060405280519060200120905090565b606060ff60001b83146113c3576113bc836116ef565b9050611450565b8180546113cf90611dc6565b80601f01602080910402602001604051908101604052809291908181526020018280546113fb90611dc6565b80156114485780601f1061141d57610100808354040283529160200191611448565b820191906000526020600020905b81548152906001019060200180831161142b57829003601f168201915b505050505090505b92915050565b60006040517f190100000000000000000000000000000000000000000000000000000000000081528360028201528260228201526042812091505092915050565b60008060007f7fffffffffffffffffffffffffffffff5d576e7357a4501ddfe92f46681b20a08460001c11156114d7576000600385925092509250611581565b6000600188888888604051600081526020016040526040516114fc9493929190611f9d565b6020604051602081039080840390855afa15801561151e573d6000803e3d6000fd5b505050602060405103519050600073ffffffffffffffffffffffffffffffffffffffff168173ffffffffffffffffffffffffffffffffffffffff160361157257600060016000801b93509350935050611581565b8060008060001b935093509350505b9450945094915050565b6000600381111561159f5761159e611fe2565b5b8260038111156115b2576115b1611fe2565b5b03156116eb57600160038111156115cc576115cb611fe2565b5b8260038111156115df576115de611fe2565b5b03611616576040517ff645eedf00000000000000000000000000000000000000000000000000000000815260040160405180910390fd5b6002600381111561162a57611629611fe2565b5b82600381111561163d5761163c611fe2565b5b03611682578060001c6040517ffce698f70000000000000000000000000000000000000000000000000000000081526004016116799190611983565b60405180910390fd5b60038081111561169557611694611fe2565b5b8260038111156116a8576116a7611fe2565b5b036116ea57806040517fd78bce0c0000000000000000000000000000000000000000000000000000000081526004016116e19190611a41565b60405180910390fd5b5b5050565b606060006116fc83611763565b90506000602067ffffffffffffffff81111561171b5761171a611df7565b5b6040519080825280601f01601f19166020018201604052801561174d5781602001600182028036833780820191505090505b5090508181528360208201528092505050919050565b60008060ff8360001c169050601f8111156117aa576040517fb3512b0c00000000000000000000000000000000000000000000000000000000815260040160405180910390fd5b80915050919050565b600081519050919050565b600082825260208201905092915050565b60005b838110156117ed5780820151818401526020810190506117d2565b60008484015250505050565b6000601f19601f8301169050919050565b6000611815826117b3565b61181f81856117be565b935061182f8185602086016117cf565b611838816117f9565b840191505092915050565b6000602082019050818103600083015261185d818461180a565b905092915050565b600080fd5b600073ffffffffffffffffffffffffffffffffffffffff82169050919050565b60006118958261186a565b9050919050565b6118a58161188a565b81146118b057600080fd5b50565b6000813590506118c28161189c565b92915050565b6000819050919050565b6118db816118c8565b81146118e657600080fd5b50565b6000813590506118f8816118d2565b92915050565b6000806040838503121561191557611914611865565b5b6000611923858286016118b3565b9250506020611934858286016118e9565b9150509250929050565b60008115159050919050565b6119538161193e565b82525050565b600060208201905061196e600083018461194a565b92915050565b61197d816118c8565b82525050565b60006020820190506119986000830184611974565b92915050565b6000806000606084860312156119b7576119b6611865565b5b60006119c5868287016118b3565b93505060206119d6868287016118b3565b92505060406119e7868287016118e9565b9150509250925092565b600060ff82169050919050565b611a07816119f1565b82525050565b6000602082019050611a2260008301846119fe565b92915050565b6000819050919050565b611a3b81611a28565b82525050565b6000602082019050611a566000830184611a32565b92915050565b600060208284031215611a7257611a71611865565b5b6000611a80848285016118e9565b91505092915050565b600060208284031215611a9f57611a9e611865565b5b6000611aad848285016118b3565b91505092915050565b60007fff0000000000000000000000000000000000000000000000000000000000000082169050919050565b611aeb81611ab6565b82525050565b611afa8161188a565b82525050565b600081519050919050565b600082825260208201905092915050565b6000819050602082019050919050565b611b35816118c8565b82525050565b6000611b478383611b2c565b60208301905092915050565b6000602082019050919050565b6000611b6b82611b00565b611b758185611b0b565b9350611b8083611b1c565b8060005b83811015611bb1578151611b988882611b3b565b9750611ba383611b53565b925050600181019050611b84565b5085935050505092915050565b600060e082019050611bd3600083018a611ae2565b8181036020830152611be5818961180a565b90508181036040830152611bf9818861180a565b9050611c086060830187611974565b611c156080830186611af1565b611c2260a0830185611a32565b81810360c0830152611c348184611b60565b905098975050505050505050565b6000602082019050611c576000830184611af1565b92915050565b611c66816119f1565b8114611c7157600080fd5b50565b600081359050611c8381611c5d565b92915050565b611c9281611a28565b8114611c9d57600080fd5b50565b600081359050611caf81611c89565b92915050565b600080600080600080600060e0888a031215611cd457611cd3611865565b5b6000611ce28a828b016118b3565b9750506020611cf38a828b016118b3565b9650506040611d048a828b016118e9565b9550506060611d158a828b016118e9565b9450506080611d268a828b01611c74565b93505060a0611d378a828b01611ca0565b92505060c0611d488a828b01611ca0565b91505092959891949750929550565b60008060408385031215611d6e57611d6d611865565b5b6000611d7c858286016118b3565b9250506020611d8d858286016118b3565b9150509250929050565b7f4e487b7100000000000000000000000000000000000000000000000000000000600052602260045260246000fd5b60006002820490506001821680611dde57607f821691505b602082108103611df157611df0611d97565b5b50919050565b7f4e487b7100000000000000000000000000000000000000000000000000000000600052604160045260246000fd5b600060c082019050611e3b6000830189611a32565b611e486020830188611af1565b611e556040830187611af1565b611e626060830186611974565b611e6f6080830185611974565b611e7c60a0830184611974565b979650505050505050565b6000604082019050611e9c6000830185611af1565b611ea96020830184611af1565b9392505050565b6000606082019050611ec56000830186611af1565b611ed26020830185611974565b611edf6040830184611974565b949350505050565b7f4e487b7100000000000000000000000000000000000000000000000000000000600052601160045260246000fd5b6000611f21826118c8565b9150611f2c836118c8565b9250828201905080821115611f4457611f43611ee7565b5b92915050565b600060a082019050611f5f6000830188611a32565b611f6c6020830187611a32565b611f796040830186611a32565b611f866060830185611974565b611f936080830184611af1565b9695505050505050565b6000608082019050611fb26000830187611a32565b611fbf60208301866119fe565b611fcc6040830185611a32565b611fd96060830184611a32565b95945050505050565b7f4e487b7100000000000000000000000000000000000000000000000000000000600052602160045260246000fdfea2646970667358221220c0d0633aaf1c9f34ff3b733dcb2c1e429f6599e253b845857412a2016a1c376364736f6c634300081c0033",
  "linkReferences": {},
  "deployedLinkReferences": {}
}