{
  "_format": "hh-sol-artifact-1",
  "contractName": "OathLockEAS",
  "sourceName": "contracts/OathLockEAS.sol",
  "abi": [
    {
      "inputs": [
        {
          "internalType": "address",
          "name": "_usdcToken",
          "type": "address"
        },
        {
          "internalType": "address",
          "name": "_eas",
          "type": "address"
        },
        {
          "internalType": "bytes32",
          "name": "_schemaOrderOpened",
          "type": "bytes32"
        },
        {
          "internalType": "bytes32",
          "name": "_schemaShipmentDeclared",
          "type": "bytes32"
        },
        {
          "internalType": "bytes32",
          "name": "_schemaDisputeFiled",
          "type": "bytes32"
        },
        {
          "internalType": "bytes32",
          "name": "_schemaReputationTag",
          "type": "bytes32"
        },
        {
          "internalType": "bytes32",
          "name": "_schemaSettlementExecuted",
          "type": "bytes32"
        }
      ],
      "stateMutability": "nonpayable",
      "type": "constructor"
    },
    {
      "inputs": [
        {
          "internalType": "address",
          "name": "token",
          "type": "address"
        }
      ],
      "name": "SafeERC20FailedOperation",
      "type": "error"
    },
    {
      "anonymous": false,
      "inputs": [
        {
          "indexed": true,
          "internalType": "uint256",
          "name": "id",
          "type": "uint256"
        }
      ],
      "name": "BuyerApproved",
      "type": "event"
    },
    {
      "anonymous": false,
      "inputs": [
        {
          "indexed": true,
          "internalType": "uint256",
          "name": "id",
          "type": "uint256"
        },
        {
          "indexed": false,
          "internalType": "string",
          "name": "evidenceURL",
          "type": "string"
        }
      ],
      "name": "BuyerDisputed",
      "type": "event"
    },
    {
      "anonymous": false,
      "inputs": [
        {
          "indexed": true,
          "internalType": "uint256",
          "name": "id",
          "type": "uint256"
        },
        {
          "indexed": true,
          "internalType": "address",
          "name": "buyer",
          "type": "address"
        },
        {
          "indexed": true,
          "internalType": "address",
          "name": "seller",
          "type": "address"
        },
        {
          "indexed": false,
          "internalType": "uint256",
          "name": "amount",
          "type": "uint256"
        },
        {
          "indexed": false,
          "internalType": "uint256",
          "name": "expiry",
          "type": "uint256"
        }
      ],
      "name": "OathCreated",
      "type": "event"
    },
    {
      "anonymous": false,
      "inputs": [
        {
          "indexed": true,
          "internalType": "uint256",
          "name": "id",
          "type": "uint256"
        }
      ],
      "name": "RefundedToBuyer",
      "type": "event"
    },
    {
      "anonymous": false,
      "inputs": [
        {
          "indexed": true,
          "internalType": "uint256",
          "name": "id",
          "type": "uint256"
        },
        {
          "indexed": false,
          "internalType": "bytes32",
          "name": "trackingHash",
          "type": "bytes32"
        }
      ],
      "name": "SellerShipped",
      "type": "event"
    },
    {
      "anonymous": false,
      "inputs": [
        {
          "indexed": true,
          "internalType": "uint256",
          "name": "id",
          "type": "uint256"
        }
      ],
      "name": "SettledToSeller",
      "type": "event"
    },
    {
      "inputs": [],
      "name": "SCHEMA_DISPUTE_FILED",
      "outputs": [
        {
          "internalType": "bytes32",
          "name": "",
          "type": "bytes32"
        }
      ],
      "stateMutability": "view",
      "type": "function"
    },
    {
      "inputs": [],
      "name": "SCHEMA_ORDER_OPENED",
      "outputs": [
        {
          "internalType": "bytes32",
          "name": "",
          "type": "bytes32"
        }
      ],
      "stateMutability": "view",
      "type": "function"
    },
    {
      "inputs": [],
      "name": "SCHEMA_REPUTATION_TAG",
      "outputs": [
        {
          "internalType": "bytes32",
          "name": "",
          "type": "bytes32"
        }
      ],
      "stateMutability": "view",
      "type": "function"
    },
    {
      "inputs": [],
      "name": "SCHEMA_SETTLEMENT_EXECUTED",
      "outputs": [
        {
          "internalType": "bytes32",
          "name": "",
          "type": "bytes32"
        }
      ],
      "stateMutability": "view",
      "type": "function"
    },
    {
      "inputs": [],
      "name": "SCHEMA_SHIPMENT_DECLARED",
      "outputs": [
        {
          "internalType": "bytes32",
          "name": "",
          "type": "bytes32"
        }
      ],
      "stateMutability": "view",
      "type": "function"
    },
    {
      "inputs": [
        {
          "internalType": "uint256",
          "name": "id",
          "type": "uint256"
        }
      ],
      "name": "buyerApprove",
      "outputs": [],
      "stateMutability": "nonpayable",
      "type": "function"
    },
    {
      "inputs": [
        {
          "internalType": "uint256",
          "name": "id",
          "type": "uint256"
        },
        {
          "internalType": "uint8",
          "name": "category",
          "type": "uint8"
        },
        {
          "internalType": "bytes32",
          "name": "evidenceHash",
          "type": "bytes32"
        },
        {
          "internalType": "string",
          "name": "evidenceURI",
          "type": "string"
        }
      ],
      "name": "buyerDispute",
      "outputs": [],
      "stateMutability": "nonpayable",
      "type": "function"
    },
    {
      "inputs": [
        {
          "internalType": "address",
          "name": "seller",
          "type": "address"
        },
        {
          "internalType": "uint256",
          "name": "amount",
          "type": "uint256"
        },
        {
          "internalType": "uint256",
          "name": "expiry",
          "type": "uint256"
        }
      ],
      "name": "createOath",
      "outputs": [
        {
          "internalType": "uint256",
          "name": "",
          "type": "uint256"
        }
      ],
      "stateMutability": "nonpayable",
      "type": "function"
    },
    {
      "inputs": [],
      "name": "eas",
      "outputs": [
        {
          "internalType": "contract IEAS",
          "name": "",
          "type": "address"
        }
      ],
      "stateMutability": "view",
      "type": "function"
    },
    {
      "inputs": [
        {
          "internalType": "uint256",
          "name": "",
          "type": "uint256"
        }
      ],
      "name": "oathUID",
      "outputs": [
        {
          "internalType": "bytes32",
          "name": "",
          "type": "bytes32"
        }
      ],
      "stateMutability": "view",
      "type": "function"
    },
    {
      "inputs": [
        {
          "internalType": "uint256",
          "name": "",
          "type": "uint256"
        }
      ],
      "name": "oaths",
      "outputs": [
        {
          "internalType": "uint256",
          "name": "id",
          "type": "uint256"
        },
        {
          "internalType": "address",
          "name": "buyer",
          "type": "address"
        },
        {
          "internalType": "address",
          "name": "seller",
          "type": "address"
        },
        {
          "internalType": "uint256",
          "name": "amount",
          "type": "uint256"
        },
        {
          "internalType": "address",
          "name": "token",
          "type": "address"
        },
        {
          "internalType": "uint256",
          "name": "expiry",
          "type": "uint256"
        },
        {
          "internalType": "uint256",
          "name": "shipDeadline",
          "type": "uint256"
        },
        {
          "internalType": "bytes32",
          "name": "trackingHash",
          "type": "bytes32"
        },
        {
          "internalType": "string",
          "name": "evidenceURL",
          "type": "string"
        },
        {
          "internalType": "enum OathLockEAS.Status",
          "name": "status",
          "type": "uint8"
        }
      ],
      "stateMutability": "view",
      "type": "function"
    },
    {
      "inputs": [
        {
          "internalType": "uint256",
          "name": "id",
          "type": "uint256"
        },
        {
          "internalType": "uint256",
          "name": "shipDeadline",
          "type": "uint256"
        },
        {
          "internalType": "bytes32",
          "name": "trackingHash",
          "type": "bytes32"
        }
      ],
      "name": "sellerShip",
      "outputs": [],
      "stateMutability": "nonpayable",
      "type": "function"
    },
    {
      "inputs": [
        {
          "internalType": "uint256",
          "name": "id",
          "type": "uint256"
        }
      ],
      "name": "settle",
      "outputs": [],
      "stateMutability": "nonpayable",
      "type": "function"
    },
    {
      "inputs": [],
      "name": "usdcToken",
      "outputs": [
        {
          "internalType": "contract IERC20",
          "name": "",
          "type": "address"
        }
      ],
      "stateMutability": "view",
      "type": "function"
    }
  ],
  "bytecode": "0x608060405234801561001057600080fd5b506040516135363803806135368339818101604052810190610032919061017c565b86600260006101000a81548173ffffffffffffffffffffffffffffffffffffffff021916908373ffffffffffffffffffffffffffffffffffffffff16021790555085600360006101000a81548173ffffffffffffffffffffffffffffffffffffffff021916908373ffffffffffffffffffffffffffffffffffffffff16021790555084600481905550836005819055508260068190555081600781905550806008819055505050505050505061021e565b600080fd5b600073ffffffffffffffffffffffffffffffffffffffff82169050919050565b6000610113826100e8565b9050919050565b61012381610108565b811461012e57600080fd5b50565b6000815190506101408161011a565b92915050565b6000819050919050565b61015981610146565b811461016457600080fd5b50565b60008151905061017681610150565b92915050565b600080600080600080600060e0888a03121561019b5761019a6100e3565b5b60006101a98a828b01610131565b97505060206101ba8a828b01610131565b96505060406101cb8a828b01610167565b95505060606101dc8a828b01610167565b94505060806101ed8a828b01610167565b93505060a06101fe8a828b01610167565b92505060c061020f8a828b01610167565b91505092959891949750929550565b6133098061022d6000396000f3fe608060405234801561001057600080fd5b50600436106100ea5760003560e01c806397da6c091161008c578063c0caef0811610066578063c0caef0814610242578063c6e7c2f01461025e578063e1147f281461027c578063ff081164146102ac576100ea565b806397da6c09146101e85780639e06088614610206578063b846c7ef14610224576100ea565b8063211efa51116100c8578063211efa511461017657806374569c91146101925780638150864d146101ae5780638df82800146101cc576100ea565b806305fb3451146100ef5780630a6eea211461012857806311eac85514610158575b600080fd5b61010960048036038101906101049190611bc1565b6102ca565b60405161011f9a99989796959493929190611d5e565b60405180910390f35b610142600480360381019061013d9190611bc1565b610413565b60405161014f9190611e01565b60405180910390f35b61016061042b565b60405161016d9190611e7b565b60405180910390f35b610190600480360381019061018b9190611f60565b610451565b005b6101ac60048036038101906101a79190611bc1565b610991565b005b6101b6610c13565b6040516101c39190612009565b60405180910390f35b6101e660048036038101906101e19190611bc1565b610c39565b005b6101f0611152565b6040516101fd9190611e01565b60405180910390f35b61020e611158565b60405161021b9190611e01565b60405180910390f35b61022c61115e565b6040516102399190611e01565b60405180910390f35b61025c60048036038101906102579190612024565b611164565b005b610266611439565b6040516102739190611e01565b60405180910390f35b610296600480360381019061029191906120a3565b61143f565b6040516102a391906120f6565b60405180910390f35b6102b46118c9565b6040516102c19190611e01565b60405180910390f35b60016020528060005260406000206000915090508060000154908060010160009054906101000a900473ffffffffffffffffffffffffffffffffffffffff16908060020160009054906101000a900473ffffffffffffffffffffffffffffffffffffffff16908060030154908060040160009054906101000a900473ffffffffffffffffffffffffffffffffffffffff169080600501549080600601549080600701549080600801805461037d90612140565b80601f01602080910402602001604051908101604052809291908181526020018280546103a990612140565b80156103f65780601f106103cb576101008083540402835291602001916103f6565b820191906000526020600020905b8154815290600101906020018083116103d957829003601f168201915b5050505050908060090160009054906101000a900460ff1690508a565b60096020528060005260406000206000915090505481565b600260009054906101000a900473ffffffffffffffffffffffffffffffffffffffff1681565b60006001600087815260200190815260200160002090508060010160009054906101000a900473ffffffffffffffffffffffffffffffffffffffff1673ffffffffffffffffffffffffffffffffffffffff163373ffffffffffffffffffffffffffffffffffffffff16146104fa576040517f08c379a00000000000000000000000000000000000000000000000000000000081526004016104f1906121bd565b60405180910390fd5b60008383905011610540576040517f08c379a000000000000000000000000000000000000000000000000000000000815260040161053790612229565b60405180910390fd5b600081600801805461055190612140565b905014610593576040517f08c379a000000000000000000000000000000000000000000000000000000000815260040161058a90612295565b60405180910390fd5b6002808111156105a6576105a5611ce7565b5b8560ff1660028111156105bc576105bb611ce7565b5b60028111156105ce576105cd611ce7565b5b0361069757806006015442101561061a576040517f08c379a000000000000000000000000000000000000000000000000000000000815260040161061190612301565b60405180910390fd5b6000600581111561062e5761062d611ce7565b5b8160090160009054906101000a900460ff16600581111561065257610651611ce7565b5b14610692576040517f08c379a00000000000000000000000000000000000000000000000000000000081526004016106899061236d565b60405180910390fd5b610710565b600160058111156106ab576106aa611ce7565b5b8160090160009054906101000a900460ff1660058111156106cf576106ce611ce7565b5b1461070f576040517f08c379a0000000000000000000000000000000000000000000000000000000008152600401610706906123d9565b60405180910390fd5b5b60038160090160006101000a81548160ff0219169083600581111561073857610737611ce7565b5b021790555082828260080191826107509291906125d5565b50857f591d78344f3f441540fd42f3cea0c38f09f6814d054f87c949bbb28460e8c2b184846040516107839291906126e1565b60405180910390a26108436006548260020160009054906101000a900473ffffffffffffffffffffffffffffffffffffffff16600960008a815260200190815260200160002054898560010160009054906101000a900473ffffffffffffffffffffffffffffffffffffffff168660020160009054906101000a900473ffffffffffffffffffffffffffffffffffffffff168b8b8b8b60405160200161082f9796959493929190612714565b6040516020818303038152906040526118cf565b506108f56007548260010160009054906101000a900473ffffffffffffffffffffffffffffffffffffffff16600960008a815260200190815260200160002054898560010160009054906101000a900473ffffffffffffffffffffffffffffffffffffffff1660017fffffffffffffffffffffffffffffffffffffffffffffffffffffffffffffffff8c6040516020016108e195949392919061279a565b6040516020818303038152906040526118cf565b506109886007548260020160009054906101000a900473ffffffffffffffffffffffffffffffffffffffff16600960008a815260200190815260200160002054898560020160009054906101000a900473ffffffffffffffffffffffffffffffffffffffff16600260018c60405160200161097495949392919061279a565b6040516020818303038152906040526118cf565b50505050505050565b60006001600083815260200190815260200160002090508060010160009054906101000a900473ffffffffffffffffffffffffffffffffffffffff1673ffffffffffffffffffffffffffffffffffffffff163373ffffffffffffffffffffffffffffffffffffffff1614610a3a576040517f08c379a0000000000000000000000000000000000000000000000000000000008152600401610a3190612839565b60405180910390fd5b60016005811115610a4e57610a4d611ce7565b5b8160090160009054906101000a900460ff166005811115610a7257610a71611ce7565b5b14610ab2576040517f08c379a0000000000000000000000000000000000000000000000000000000008152600401610aa9906128a5565b60405180910390fd5b60028160090160006101000a81548160ff02191690836005811115610ada57610ad9611ce7565b5b0217905550610b548160020160009054906101000a900473ffffffffffffffffffffffffffffffffffffffff168260030154600260009054906101000a900473ffffffffffffffffffffffffffffffffffffffff1673ffffffffffffffffffffffffffffffffffffffff166119de9092919063ffffffff16565b817f0af878bfd1ac3fdb5535c1ba44c1a2ccafc4522fdd5bc52deec2dac35b8e289660405160405180910390a2610c0e6008548260020160009054906101000a900473ffffffffffffffffffffffffffffffffffffffff166009600086815260200190815260200160002054858560020160009054906101000a900473ffffffffffffffffffffffffffffffffffffffff166001604051602001610bfa939291906128eb565b6040516020818303038152906040526118cf565b505050565b600360009054906101000a900473ffffffffffffffffffffffffffffffffffffffff1681565b60006001600083815260200190815260200160002090508060050154421015610c97576040517f08c379a0000000000000000000000000000000000000000000000000000000008152600401610c8e90612981565b60405180910390fd5b60046005811115610cab57610caa611ce7565b5b8160090160009054906101000a900460ff166005811115610ccf57610cce611ce7565b5b14158015610d125750600580811115610ceb57610cea611ce7565b5b8160090160009054906101000a900460ff166005811115610d0f57610d0e611ce7565b5b14155b8015610d54575060026005811115610d2d57610d2c611ce7565b5b8160090160009054906101000a900460ff166005811115610d5157610d50611ce7565b5b14155b610d93576040517f08c379a0000000000000000000000000000000000000000000000000000000008152600401610d8a90612a13565b60405180910390fd5b60016005811115610da757610da6611ce7565b5b8160090160009054906101000a900460ff166005811115610dcb57610dca611ce7565b5b1480610e0c575060036005811115610de657610de5611ce7565b5b8160090160009054906101000a900460ff166005811115610e0a57610e09611ce7565b5b145b15610f735760048160090160006101000a81548160ff02191690836005811115610e3957610e38611ce7565b5b0217905550610eb38160020160009054906101000a900473ffffffffffffffffffffffffffffffffffffffff168260030154600260009054906101000a900473ffffffffffffffffffffffffffffffffffffffff1673ffffffffffffffffffffffffffffffffffffffff166119de9092919063ffffffff16565b817ffc96b5ca8138ed8ef13889483ba651f201e60f01ebe167ef29917a681d05419060405160405180910390a2610f6d6008548260020160009054906101000a900473ffffffffffffffffffffffffffffffffffffffff166009600086815260200190815260200160002054858560020160009054906101000a900473ffffffffffffffffffffffffffffffffffffffff166001604051602001610f59939291906128eb565b6040516020818303038152906040526118cf565b5061114e565b60006005811115610f8757610f86611ce7565b5b8160090160009054906101000a900460ff166005811115610fab57610faa611ce7565b5b036111125760058160090160006101000a81548160ff02191690836005811115610fd857610fd7611ce7565b5b02179055506110528160010160009054906101000a900473ffffffffffffffffffffffffffffffffffffffff168260030154600260009054906101000a900473ffffffffffffffffffffffffffffffffffffffff1673ffffffffffffffffffffffffffffffffffffffff166119de9092919063ffffffff16565b817f68a6cb87771180a51c6f8b52dd5034d77e0270e58713adef77be2f96ee53cd6260405160405180910390a261110c6008548260010160009054906101000a900473ffffffffffffffffffffffffffffffffffffffff166009600086815260200190815260200160002054858560010160009054906101000a900473ffffffffffffffffffffffffffffffffffffffff1660026040516020016110f8939291906128eb565b6040516020818303038152906040526118cf565b5061114d565b6040517f08c379a000000000000000000000000000000000000000000000000000000000815260040161114490612a7f565b60405180910390fd5b5b5050565b60045481565b60055481565b60075481565b60006001600085815260200190815260200160002090508060020160009054906101000a900473ffffffffffffffffffffffffffffffffffffffff1673ffffffffffffffffffffffffffffffffffffffff163373ffffffffffffffffffffffffffffffffffffffff161461120d576040517f08c379a000000000000000000000000000000000000000000000000000000000815260040161120490612aeb565b60405180910390fd5b6000600581111561122157611220611ce7565b5b8160090160009054906101000a900460ff16600581111561124557611244611ce7565b5b14611285576040517f08c379a000000000000000000000000000000000000000000000000000000000815260040161127c90612b57565b60405180910390fd5b806005015483106112cb576040517f08c379a00000000000000000000000000000000000000000000000000000000081526004016112c290612be9565b60405180910390fd5b8242111561130e576040517f08c379a000000000000000000000000000000000000000000000000000000000815260040161130590612c55565b60405180910390fd5b6000801b8203611353576040517f08c379a000000000000000000000000000000000000000000000000000000000815260040161134a90612cc1565b60405180910390fd5b60018160090160006101000a81548160ff0219169083600581111561137b5761137a611ce7565b5b0217905550828160060181905550818160070181905550837fd0568cb3a45f93c3bd34600b98af801ecc9dc26094a7241506a57070bf3b93c2836040516113c29190611e01565b60405180910390a26114326005548260020160009054906101000a900473ffffffffffffffffffffffffffffffffffffffff16600960008881526020019081526020016000205487864260405160200161141e93929190612d04565b6040516020818303038152906040526118cf565b5050505050565b60065481565b60008073ffffffffffffffffffffffffffffffffffffffff168473ffffffffffffffffffffffffffffffffffffffff16036114af576040517f08c379a00000000000000000000000000000000000000000000000000000000081526004016114a690612d9a565b60405180910390fd5b600083116114f2576040517f08c379a00000000000000000000000000000000000000000000000000000000081526004016114e990612e06565b60405180910390fd5b428211611534576040517f08c379a000000000000000000000000000000000000000000000000000000000815260040161152b90612e72565b60405180910390fd5b611583333085600260009054906101000a900473ffffffffffffffffffffffffffffffffffffffff1673ffffffffffffffffffffffffffffffffffffffff16611a5d909392919063ffffffff16565b60008081548092919061159590612ec1565b91905055506000805490506040518061014001604052808281526020013373ffffffffffffffffffffffffffffffffffffffff1681526020018673ffffffffffffffffffffffffffffffffffffffff168152602001858152602001600260009054906101000a900473ffffffffffffffffffffffffffffffffffffffff1673ffffffffffffffffffffffffffffffffffffffff168152602001848152602001600081526020016000801b81526020016040518060200160405280600081525081526020016000600581111561166d5761166c611ce7565b5b815250600160008381526020019081526020016000206000820151816000015560208201518160010160006101000a81548173ffffffffffffffffffffffffffffffffffffffff021916908373ffffffffffffffffffffffffffffffffffffffff16021790555060408201518160020160006101000a81548173ffffffffffffffffffffffffffffffffffffffff021916908373ffffffffffffffffffffffffffffffffffffffff1602179055506060820151816003015560808201518160040160006101000a81548173ffffffffffffffffffffffffffffffffffffffff021916908373ffffffffffffffffffffffffffffffffffffffff16021790555060a0820151816005015560c0820151816006015560e082015181600701556101008201518160080190816117a09190612f09565b506101208201518160090160006101000a81548160ff021916908360058111156117cd576117cc611ce7565b5b02179055509050508473ffffffffffffffffffffffffffffffffffffffff163373ffffffffffffffffffffffffffffffffffffffff16827fcda2309b4ebb330595cafc5772fa8d8177a40af816ed1c9a29b1ea3f5b2e3de38787604051611835929190612fdb565b60405180910390a460006118a3600454876000801b85338b600260009054906101000a900473ffffffffffffffffffffffffffffffffffffffff168c8c60008060001b60405160200161188f989796959493929190613004565b6040516020818303038152906040526118cf565b905080600960008481526020019081526020016000208190555081925050509392505050565b60085481565b6000600360009054906101000a900473ffffffffffffffffffffffffffffffffffffffff1673ffffffffffffffffffffffffffffffffffffffff1663f17325e760405180604001604052808881526020016040518060c001604052808973ffffffffffffffffffffffffffffffffffffffff168152602001600067ffffffffffffffff16815260200160001515815260200188815260200187815260200160008152508152506040518263ffffffff1660e01b815260040161199191906131f4565b6020604051808303816000875af11580156119b0573d6000803e3d6000fd5b505050506040513d601f19601f820116820180604052508101906119d4919061322b565b9050949350505050565b611a58838473ffffffffffffffffffffffffffffffffffffffff1663a9059cbb8585604051602401611a11929190613258565b604051602081830303815290604052915060e01b6020820180517bffffffffffffffffffffffffffffffffffffffffffffffffffffffff8381831617835250505050611adf565b505050565b611ad9848573ffffffffffffffffffffffffffffffffffffffff166323b872dd868686604051602401611a9293929190613281565b604051602081830303815290604052915060e01b6020820180517bffffffffffffffffffffffffffffffffffffffffffffffffffffffff8381831617835250505050611adf565b50505050565b600080602060008451602086016000885af180611b02576040513d6000823e3d81fd5b3d925060005191505060008214611b1d576001811415611b39565b60008473ffffffffffffffffffffffffffffffffffffffff163b145b15611b7b57836040517f5274afe7000000000000000000000000000000000000000000000000000000008152600401611b7291906132b8565b60405180910390fd5b50505050565b600080fd5b600080fd5b6000819050919050565b611b9e81611b8b565b8114611ba957600080fd5b50565b600081359050611bbb81611b95565b92915050565b600060208284031215611bd757611bd6611b81565b5b6000611be584828501611bac565b91505092915050565b611bf781611b8b565b82525050565b600073ffffffffffffffffffffffffffffffffffffffff82169050919050565b6000611c2882611bfd565b9050919050565b611c3881611c1d565b82525050565b6000819050919050565b611c5181611c3e565b82525050565b600081519050919050565b600082825260208201905092915050565b60005b83811015611c91578082015181840152602081019050611c76565b60008484015250505050565b6000601f19601f8301169050919050565b6000611cb982611c57565b611cc38185611c62565b9350611cd3818560208601611c73565b611cdc81611c9d565b840191505092915050565b7f4e487b7100000000000000000000000000000000000000000000000000000000600052602160045260246000fd5b60068110611d2757611d26611ce7565b5b50565b6000819050611d3882611d16565b919050565b6000611d4882611d2a565b9050919050565b611d5881611d3d565b82525050565b600061014082019050611d74600083018d611bee565b611d81602083018c611c2f565b611d8e604083018b611c2f565b611d9b606083018a611bee565b611da86080830189611c2f565b611db560a0830188611bee565b611dc260c0830187611bee565b611dcf60e0830186611c48565b818103610100830152611de28185611cae565b9050611df2610120830184611d4f565b9b9a5050505050505050505050565b6000602082019050611e166000830184611c48565b92915050565b6000819050919050565b6000611e41611e3c611e3784611bfd565b611e1c565b611bfd565b9050919050565b6000611e5382611e26565b9050919050565b6000611e6582611e48565b9050919050565b611e7581611e5a565b82525050565b6000602082019050611e906000830184611e6c565b92915050565b600060ff82169050919050565b611eac81611e96565b8114611eb757600080fd5b50565b600081359050611ec981611ea3565b92915050565b611ed881611c3e565b8114611ee357600080fd5b50565b600081359050611ef581611ecf565b92915050565b600080fd5b600080fd5b600080fd5b60008083601f840112611f2057611f1f611efb565b5b8235905067ffffffffffffffff811115611f3d57611f3c611f00565b5b602083019150836001820283011115611f5957611f58611f05565b5b9250929050565b600080600080600060808688031215611f7c57611f7b611b81565b5b6000611f8a88828901611bac565b9550506020611f9b88828901611eba565b9450506040611fac88828901611ee6565b935050606086013567ffffffffffffffff811115611fcd57611fcc611b86565b5b611fd988828901611f0a565b92509250509295509295909350565b6000611ff382611e48565b9050919050565b61200381611fe8565b82525050565b600060208201905061201e6000830184611ffa565b92915050565b60008060006060848603121561203d5761203c611b81565b5b600061204b86828701611bac565b935050602061205c86828701611bac565b925050604061206d86828701611ee6565b9150509250925092565b61208081611c1d565b811461208b57600080fd5b50565b60008135905061209d81612077565b92915050565b6000806000606084860312156120bc576120bb611b81565b5b60006120ca8682870161208e565b93505060206120db86828701611bac565b92505060406120ec86828701611bac565b9150509250925092565b600060208201905061210b6000830184611bee565b92915050565b7f4e487b7100000000000000000000000000000000000000000000000000000000600052602260045260246000fd5b6000600282049050600182168061215857607f821691505b60208210810361216b5761216a612111565b5b50919050565b7f4f6e6c792062757965722063616e206469737075746500000000000000000000600082015250565b60006121a7601683611c62565b91506121b282612171565b602082019050919050565b600060208201905081810360008301526121d68161219a565b9050919050565b7f45766964656e63652055524c2063616e6e6f7420626520656d70747900000000600082015250565b6000612213601c83611c62565b915061221e826121dd565b602082019050919050565b6000602082019050818103600083015261224281612206565b9050919050565b7f4469737075746520616c72656164792066696c65640000000000000000000000600082015250565b600061227f601583611c62565b915061228a82612249565b602082019050919050565b600060208201905081810360008301526122ae81612272565b9050919050565b7f546f6f206561726c7920666f7220756e64656c69766572656400000000000000600082015250565b60006122eb601983611c62565b91506122f6826122b5565b602082019050919050565b6000602082019050818103600083015261231a816122de565b9050919050565b7f536869706d656e7420616c7265616479206465636c6172656400000000000000600082015250565b6000612357601983611c62565b915061236282612321565b602082019050919050565b600060208201905081810360008301526123868161234a565b9050919050565b7f4e6f742073686970706564207965740000000000000000000000000000000000600082015250565b60006123c3600f83611c62565b91506123ce8261238d565b602082019050919050565b600060208201905081810360008301526123f2816123b6565b9050919050565b600082905092915050565b7f4e487b7100000000000000000000000000000000000000000000000000000000600052604160045260246000fd5b60008190508160005260206000209050919050565b60006020601f8301049050919050565b600082821b905092915050565b6000600883026124957fffffffffffffffffffffffffffffffffffffffffffffffffffffffffffffffff82612458565b61249f8683612458565b95508019841693508086168417925050509392505050565b60006124d26124cd6124c884611b8b565b611e1c565b611b8b565b9050919050565b6000819050919050565b6124ec836124b7565b6125006124f8826124d9565b848454612465565b825550505050565b600090565b612515612508565b6125208184846124e3565b505050565b5b818110156125445761253960008261250d565b600181019050612526565b5050565b601f8211156125895761255a81612433565b61256384612448565b81016020851015612572578190505b61258661257e85612448565b830182612525565b50505b505050565b600082821c905092915050565b60006125ac6000198460080261258e565b1980831691505092915050565b60006125c5838361259b565b9150826002028217905092915050565b6125df83836123f9565b67ffffffffffffffff8111156125f8576125f7612404565b5b6126028254612140565b61260d828285612548565b6000601f83116001811461263c576000841561262a578287013590505b61263485826125b9565b86555061269c565b601f19841661264a86612433565b60005b828110156126725784890135825560018201915060208501945060208101905061264d565b8683101561268f578489013561268b601f89168261259b565b8355505b6001600288020188555050505b50505050505050565b82818337600083830152505050565b60006126c08385611c62565b93506126cd8385846126a5565b6126d683611c9d565b840190509392505050565b600060208201905081810360008301526126fc8184866126b4565b90509392505050565b61270e81611e96565b82525050565b600060c082019050612729600083018a611bee565b6127366020830189611c2f565b6127436040830188611c2f565b6127506060830187612705565b61275d6080830186611c48565b81810360a08301526127708184866126b4565b905098975050505050505050565b60008160000b9050919050565b6127948161277e565b82525050565b600060a0820190506127af6000830188611bee565b6127bc6020830187611c2f565b6127c96040830186612705565b6127d6606083018561278b565b6127e36080830184612705565b9695505050505050565b7f4f6e6c792062757965722063616e20617070726f766500000000000000000000600082015250565b6000612823601683611c62565b915061282e826127ed565b602082019050919050565b6000602082019050818103600083015261285281612816565b9050919050565b7f4f617468206e6f7420696e207368697070656420737461746500000000000000600082015250565b600061288f601983611c62565b915061289a82612859565b602082019050919050565b600060208201905081810360008301526128be81612882565b9050919050565b50565b60006128d5600083611c62565b91506128e0826128c5565b600082019050919050565b60006080820190506129006000830186611bee565b61290d6020830185611c2f565b61291a6040830184612705565b818103606083015261292b816128c8565b9050949350505050565b7f43616e6e6f7420736574746c65206265666f7265206578706972790000000000600082015250565b600061296b601b83611c62565b915061297682612935565b602082019050919050565b6000602082019050818103600083015261299a8161295e565b9050919050565b7f4f61746820616c726561647920736574746c65642c20726566756e6465642c2060008201527f6f7220617070726f766564000000000000000000000000000000000000000000602082015250565b60006129fd602b83611c62565b9150612a08826129a1565b604082019050919050565b60006020820190508181036000830152612a2c816129f0565b9050919050565b7f496e76616c696420737461746520666f7220736574746c656d656e7400000000600082015250565b6000612a69601c83611c62565b9150612a7482612a33565b602082019050919050565b60006020820190508181036000830152612a9881612a5c565b9050919050565b7f4f6e6c792073656c6c65722063616e2073686970000000000000000000000000600082015250565b6000612ad5601483611c62565b9150612ae082612a9f565b602082019050919050565b60006020820190508181036000830152612b0481612ac8565b9050919050565b7f4f617468206e6f7420696e206372656174656420737461746500000000000000600082015250565b6000612b41601983611c62565b9150612b4c82612b0b565b602082019050919050565b60006020820190508181036000830152612b7081612b34565b9050919050565b7f5368697020646561646c696e65206d757374206265206265666f72652065787060008201527f6972790000000000000000000000000000000000000000000000000000000000602082015250565b6000612bd3602383611c62565b9150612bde82612b77565b604082019050919050565b60006020820190508181036000830152612c0281612bc6565b9050919050565b7f5368697070696e6720646561646c696e65206861732070617373656400000000600082015250565b6000612c3f601c83611c62565b9150612c4a82612c09565b602082019050919050565b60006020820190508181036000830152612c6e81612c32565b9050919050565b7f547261636b696e6720686173682063616e6e6f7420626520656d707479000000600082015250565b6000612cab601d83611c62565b9150612cb682612c75565b602082019050919050565b60006020820190508181036000830152612cda81612c9e565b9050919050565b600067ffffffffffffffff82169050919050565b612cfe81612ce1565b82525050565b6000608082019050612d196000830186611bee565b612d266020830185611c48565b612d336040830184612cf5565b8181036060830152612d44816128c8565b9050949350505050565b7f496e76616c69642073656c6c6572206164647265737300000000000000000000600082015250565b6000612d84601683611c62565b9150612d8f82612d4e565b602082019050919050565b60006020820190508181036000830152612db381612d77565b9050919050565b7f416d6f756e74206d7573742062652067726561746572207468616e207a65726f600082015250565b6000612df0602083611c62565b9150612dfb82612dba565b602082019050919050565b60006020820190508181036000830152612e1f81612de3565b9050919050565b7f457870697279206d75737420626520696e207468652066757475726500000000600082015250565b6000612e5c601c83611c62565b9150612e6782612e26565b602082019050919050565b60006020820190508181036000830152612e8b81612e4f565b9050919050565b7f4e487b7100000000000000000000000000000000000000000000000000000000600052601160045260246000fd5b6000612ecc82611b8b565b91507fffffffffffffffffffffffffffffffffffffffffffffffffffffffffffffffff8203612efe57612efd612e92565b5b600182019050919050565b612f1282611c57565b67ffffffffffffffff811115612f2b57612f2a612404565b5b612f358254612140565b612f40828285612548565b600060209050601f831160018114612f735760008415612f61578287015190505b612f6b85826125b9565b865550612fd3565b601f198416612f8186612433565b60005b82811015612fa957848901518255600182019150602085019450602081019050612f84565b86831015612fc65784890151612fc2601f89168261259b565b8355505b6001600288020188555050505b505050505050565b6000604082019050612ff06000830185611bee565b612ffd6020830184611bee565b9392505050565b60006101008201905061301a600083018b611bee565b613027602083018a611c2f565b6130346040830189611c2f565b6130416060830188611c2f565b61304e6080830187611bee565b61305b60a0830186612cf5565b61306860c0830185612cf5565b61307560e0830184611c48565b9998505050505050505050565b61308b81611c3e565b82525050565b61309a81611c1d565b82525050565b6130a981612ce1565b82525050565b60008115159050919050565b6130c4816130af565b82525050565b600081519050919050565b600082825260208201905092915050565b60006130f1826130ca565b6130fb81856130d5565b935061310b818560208601611c73565b61311481611c9d565b840191505092915050565b61312881611b8b565b82525050565b600060c0830160008301516131466000860182613091565b50602083015161315960208601826130a0565b50604083015161316c60408601826130bb565b50606083015161317f6060860182613082565b506080830151848203608086015261319782826130e6565b91505060a08301516131ac60a086018261311f565b508091505092915050565b60006040830160008301516131cf6000860182613082565b50602083015184820360208601526131e7828261312e565b9150508091505092915050565b6000602082019050818103600083015261320e81846131b7565b905092915050565b60008151905061322581611ecf565b92915050565b60006020828403121561324157613240611b81565b5b600061324f84828501613216565b91505092915050565b600060408201905061326d6000830185611c2f565b61327a6020830184611bee565b9392505050565b60006060820190506132966000830186611c2f565b6132a36020830185611c2f565b6132b06040830184611bee565b949350505050565b60006020820190506132cd6000830184611c2f565b9291505056fea2646970667358221220bfc4d4c95dca937654bef5244150fa863c8b8fcc64afc52a89e719e289181c6664736f6c634300081c0033",
  "linkReferences": {},
  "deployedLinkReferences": {}
}